{
  "_format": "hh-sol-artifact-1",
  "contractName": "ERC721MintingFactory",
  "sourceName": "contracts/NFTMarketplace/MintingAndStorage/ERC721MintingFactory.sol",
  "abi": [
    {
      "inputs": [],
      "stateMutability": "nonpayable",
      "type": "constructor"
    },
    {
      "anonymous": false,
      "inputs": [
        {
          "indexed": false,
          "internalType": "address",
          "name": "oldExchange",
          "type": "address"
        },
        {
          "indexed": false,
          "internalType": "address",
          "name": "newExchange",
          "type": "address"
        }
      ],
      "name": "ExchangeAddressChanged",
      "type": "event"
    },
    {
      "anonymous": false,
      "inputs": [
        {
          "indexed": false,
          "internalType": "string",
          "name": "name",
          "type": "string"
        },
        {
          "indexed": false,
          "internalType": "string",
          "name": "symbol",
          "type": "string"
        },
        {
          "indexed": false,
          "internalType": "address",
          "name": "nftContract",
          "type": "address"
        }
      ],
      "name": "NFTContractCreated",
      "type": "event"
    },
    {
      "anonymous": false,
      "inputs": [
        {
          "indexed": false,
          "internalType": "address",
          "name": "nftContract",
          "type": "address"
        },
        {
          "indexed": false,
          "internalType": "uint256",
          "name": "tokenId",
          "type": "uint256"
        }
      ],
      "name": "NFTMinted",
      "type": "event"
    },
    {
      "anonymous": false,
      "inputs": [
        {
          "indexed": false,
          "internalType": "address",
          "name": "nftContract",
          "type": "address"
        },
        {
          "indexed": false,
          "internalType": "uint256",
          "name": "tokenId",
          "type": "uint256"
        },
        {
          "indexed": false,
          "internalType": "address",
          "name": "newOwner",
          "type": "address"
        }
      ],
      "name": "OwnerUpdated",
      "type": "event"
    },
    {
      "inputs": [],
      "name": "adminAddress",
      "outputs": [
        {
          "internalType": "address",
          "name": "",
          "type": "address"
        }
      ],
      "stateMutability": "view",
      "type": "function"
    },
    {
      "inputs": [
        {
          "internalType": "string",
          "name": "_name",
          "type": "string"
        },
        {
          "internalType": "string",
          "name": "_symbol",
          "type": "string"
        }
      ],
      "name": "createNFTContract",
      "outputs": [
        {
          "internalType": "address",
          "name": "_nftcontract",
          "type": "address"
        }
      ],
      "stateMutability": "nonpayable",
      "type": "function"
    },
    {
      "inputs": [],
      "name": "exchangeAddress",
      "outputs": [
        {
          "internalType": "address",
          "name": "",
          "type": "address"
        }
      ],
      "stateMutability": "view",
      "type": "function"
    },
    {
      "inputs": [
        {
          "internalType": "address",
          "name": "user",
          "type": "address"
        }
      ],
      "name": "getNFTsForOwner",
      "outputs": [
        {
          "internalType": "address[]",
          "name": "",
          "type": "address[]"
        }
      ],
      "stateMutability": "view",
      "type": "function"
    },
    {
      "inputs": [
        {
          "internalType": "address",
          "name": "_nftContract",
          "type": "address"
        }
      ],
      "name": "getTotalNFTsMinted",
      "outputs": [
        {
          "internalType": "uint256",
          "name": "",
          "type": "uint256"
        }
      ],
      "stateMutability": "view",
      "type": "function"
    },
    {
      "inputs": [
        {
          "internalType": "address",
          "name": "_nftContract",
          "type": "address"
        },
        {
          "internalType": "string",
          "name": "_tokenURI",
          "type": "string"
        }
      ],
      "name": "mintNFT",
      "outputs": [],
      "stateMutability": "nonpayable",
      "type": "function"
    },
    {
      "inputs": [
        {
          "internalType": "address",
          "name": "",
          "type": "address"
        },
        {
          "internalType": "uint256",
          "name": "",
          "type": "uint256"
        }
      ],
      "name": "nftToIdToOwner",
      "outputs": [
        {
          "internalType": "address",
          "name": "",
          "type": "address"
        }
      ],
      "stateMutability": "view",
      "type": "function"
    },
    {
      "inputs": [
        {
          "internalType": "address",
          "name": "",
          "type": "address"
        }
      ],
      "name": "nftToOwner",
      "outputs": [
        {
          "internalType": "address",
          "name": "",
          "type": "address"
        }
      ],
      "stateMutability": "view",
      "type": "function"
    },
    {
      "inputs": [
        {
          "internalType": "address",
          "name": "",
          "type": "address"
        },
        {
          "internalType": "uint256",
          "name": "",
          "type": "uint256"
        }
      ],
      "name": "ownerToNFTs",
      "outputs": [
        {
          "internalType": "address",
          "name": "",
          "type": "address"
        }
      ],
      "stateMutability": "view",
      "type": "function"
    },
    {
      "inputs": [
        {
          "internalType": "address",
          "name": "_newExchange",
          "type": "address"
        }
      ],
      "name": "updateExchangeAddress",
      "outputs": [],
      "stateMutability": "nonpayable",
      "type": "function"
    },
    {
      "inputs": [
        {
          "internalType": "address",
          "name": "_nftContract",
          "type": "address"
        },
        {
          "internalType": "uint256",
          "name": "_tokenId",
          "type": "uint256"
        },
        {
          "internalType": "address",
          "name": "_newOwner",
          "type": "address"
        }
      ],
      "name": "updateOwner",
      "outputs": [],
      "stateMutability": "nonpayable",
      "type": "function"
    }
  ],
  "bytecode": "0x608060405234801561001057600080fd5b50336000806101000a81548173ffffffffffffffffffffffffffffffffffffffff021916908373ffffffffffffffffffffffffffffffffffffffff160217905550614b00806100606000396000f3fe60806040523480156200001157600080fd5b5060043610620000b85760003560e01c8063ad0f93ad116200007b578063ad0f93ad146200018b578063bf7cc0bc14620001c1578063da00183e14620001f7578063dc4c2026146200022d578063eacabe141462000263578063fc6f9468146200028357620000b8565b806314d76ffc14620000bd5780631bd5a5d314620000f357806331415a651462000113578063994212aa14620001335780639cd016051462000169575b600080fd5b620000db6004803603810190620000d5919062000d7c565b620002a5565b604051620000ea919062000f88565b60405180910390f35b6200011160048036038101906200010b919062000d26565b6200044a565b005b6200013160048036038101906200012b919062000c5f565b620005ae565b005b6200015160048036038101906200014b919062000c5f565b62000708565b6040516200016091906200103c565b60405180910390f35b62000173620007d7565b60405162000182919062000f88565b60405180910390f35b620001a96004803603810190620001a3919062000ce5565b620007fd565b604051620001b8919062000f88565b60405180910390f35b620001df6004803603810190620001d9919062000ce5565b6200084c565b604051620001ee919062000f88565b60405180910390f35b6200021560048036038101906200020f919062000c5f565b6200088e565b60405162000224919062001170565b60405180910390f35b6200024b600480360381019062000245919062000c5f565b62000919565b6040516200025a919062000f88565b60405180910390f35b6200028160048036038101906200027b919062000c8b565b6200094c565b005b6200028d62000b76565b6040516200029c919062000f88565b60405180910390f35b6000808383604051620002b89062000b9a565b620002c592919062001084565b604051809103906000f080158015620002e2573d6000803e3d6000fd5b509050600260003373ffffffffffffffffffffffffffffffffffffffff1673ffffffffffffffffffffffffffffffffffffffff168152602001908152602001600020819080600181540180825580915050600190039060005260206000200160009091909190916101000a81548173ffffffffffffffffffffffffffffffffffffffff021916908373ffffffffffffffffffffffffffffffffffffffff16021790555033600460008373ffffffffffffffffffffffffffffffffffffffff1673ffffffffffffffffffffffffffffffffffffffff16815260200190815260200160002060006101000a81548173ffffffffffffffffffffffffffffffffffffffff021916908373ffffffffffffffffffffffffffffffffffffffff1602179055507fe05033be0f25d52c4b8af5abd6206011fe0006f22356a89e1ceaaeb5be9cce3d8484836040516200043893929190620010bf565b60405180910390a18091505092915050565b600160009054906101000a900473ffffffffffffffffffffffffffffffffffffffff1673ffffffffffffffffffffffffffffffffffffffff163373ffffffffffffffffffffffffffffffffffffffff1614620004dd576040517f08c379a0000000000000000000000000000000000000000000000000000000008152600401620004d4906200114e565b60405180910390fd5b80600360008573ffffffffffffffffffffffffffffffffffffffff1673ffffffffffffffffffffffffffffffffffffffff168152602001908152602001600020600084815260200190815260200160002060006101000a81548173ffffffffffffffffffffffffffffffffffffffff021916908373ffffffffffffffffffffffffffffffffffffffff1602179055507fbf7d716ccb48f073c088770f60a983dbc96730447d5eeccc755ba5f70efd4dac838383604051620005a19392919062000fff565b60405180910390a1505050565b60008054906101000a900473ffffffffffffffffffffffffffffffffffffffff1673ffffffffffffffffffffffffffffffffffffffff163373ffffffffffffffffffffffffffffffffffffffff16146200063f576040517f08c379a000000000000000000000000000000000000000000000000000000000815260040162000636906200112c565b60405180910390fd5b6000600160009054906101000a900473ffffffffffffffffffffffffffffffffffffffff16905081600160006101000a81548173ffffffffffffffffffffffffffffffffffffffff021916908373ffffffffffffffffffffffffffffffffffffffff1602179055507faae8f79ab8cb5fd21b5dcd706744632e9ad6eeb41f4f1517da1c17416c485d3981600160009054906101000a900473ffffffffffffffffffffffffffffffffffffffff16604051620006fc92919062000fa5565b60405180910390a15050565b6060600260008373ffffffffffffffffffffffffffffffffffffffff1673ffffffffffffffffffffffffffffffffffffffff168152602001908152602001600020805480602002602001604051908101604052809291908181526020018280548015620007cb57602002820191906000526020600020905b8160009054906101000a900473ffffffffffffffffffffffffffffffffffffffff1673ffffffffffffffffffffffffffffffffffffffff168152602001906001019080831162000780575b50505050509050919050565b600160009054906101000a900473ffffffffffffffffffffffffffffffffffffffff1681565b600260205281600052604060002081815481106200081a57600080fd5b906000526020600020016000915091509054906101000a900473ffffffffffffffffffffffffffffffffffffffff1681565b60036020528160005260406000206020528060005260406000206000915091509054906101000a900473ffffffffffffffffffffffffffffffffffffffff1681565b60008173ffffffffffffffffffffffffffffffffffffffff166330bdb3516040518163ffffffff1660e01b815260040160206040518083038186803b158015620008d757600080fd5b505afa158015620008ec573d6000803e3d6000fd5b505050506040513d601f19601f8201168201806040525081019062000912919062000def565b9050919050565b60046020528060005260406000206000915054906101000a900473ffffffffffffffffffffffffffffffffffffffff1681565b813373ffffffffffffffffffffffffffffffffffffffff16600460008373ffffffffffffffffffffffffffffffffffffffff1673ffffffffffffffffffffffffffffffffffffffff16815260200190815260200160002060009054906101000a900473ffffffffffffffffffffffffffffffffffffffff1673ffffffffffffffffffffffffffffffffffffffff161462000a1d576040517f08c379a000000000000000000000000000000000000000000000000000000000815260040162000a14906200110a565b60405180910390fd5b8273ffffffffffffffffffffffffffffffffffffffff16633157631f836040518263ffffffff1660e01b815260040162000a58919062001060565b602060405180830381600087803b15801562000a7357600080fd5b505af115801562000a88573d6000803e3d6000fd5b505050506040513d601f19601f8201168201806040525081019062000aae919062000def565b5060008373ffffffffffffffffffffffffffffffffffffffff166330bdb3516040518163ffffffff1660e01b815260040160206040518083038186803b15801562000af857600080fd5b505afa15801562000b0d573d6000803e3d6000fd5b505050506040513d601f19601f8201168201806040525081019062000b33919062000def565b90507f4cc0a9c4a99ddc700de1af2c9f916a7cbfdb71f14801ccff94061ad1ef8a8040848260405162000b6892919062000fd2565b60405180910390a150505050565b60008054906101000a900473ffffffffffffffffffffffffffffffffffffffff1681565b6136e180620013ea83390190565b600062000bbf62000bb984620011b6565b6200118d565b90508281526020810184848401111562000bd857600080fd5b62000be58482856200127f565b509392505050565b60008135905062000bfe81620013b5565b92915050565b600082601f83011262000c1657600080fd5b813562000c2884826020860162000ba8565b91505092915050565b60008135905062000c4281620013cf565b92915050565b60008151905062000c5981620013cf565b92915050565b60006020828403121562000c7257600080fd5b600062000c828482850162000bed565b91505092915050565b6000806040838503121562000c9f57600080fd5b600062000caf8582860162000bed565b925050602083013567ffffffffffffffff81111562000ccd57600080fd5b62000cdb8582860162000c04565b9150509250929050565b6000806040838503121562000cf957600080fd5b600062000d098582860162000bed565b925050602062000d1c8582860162000c31565b9150509250929050565b60008060006060848603121562000d3c57600080fd5b600062000d4c8682870162000bed565b935050602062000d5f8682870162000c31565b925050604062000d728682870162000bed565b9150509250925092565b6000806040838503121562000d9057600080fd5b600083013567ffffffffffffffff81111562000dab57600080fd5b62000db98582860162000c04565b925050602083013567ffffffffffffffff81111562000dd757600080fd5b62000de58582860162000c04565b9150509250929050565b60006020828403121562000e0257600080fd5b600062000e128482850162000c48565b91505092915050565b600062000e29838362000e35565b60208301905092915050565b62000e408162001241565b82525050565b62000e518162001241565b82525050565b600062000e6482620011fc565b62000e7081856200121f565b935062000e7d83620011ec565b8060005b8381101562000eb457815162000e98888262000e1b565b975062000ea58362001212565b92505060018101905062000e81565b5085935050505092915050565b600062000ece8262001207565b62000eda818562001230565b935062000eec8185602086016200128e565b62000ef78162001329565b840191505092915050565b600062000f11601b8362001230565b915062000f1e826200133a565b602082019050919050565b600062000f3860198362001230565b915062000f458262001363565b602082019050919050565b600062000f5f601c8362001230565b915062000f6c826200138c565b602082019050919050565b62000f828162001275565b82525050565b600060208201905062000f9f600083018462000e46565b92915050565b600060408201905062000fbc600083018562000e46565b62000fcb602083018462000e46565b9392505050565b600060408201905062000fe9600083018562000e46565b62000ff8602083018462000f77565b9392505050565b600060608201905062001016600083018662000e46565b62001025602083018562000f77565b62001034604083018462000e46565b949350505050565b6000602082019050818103600083015262001058818462000e57565b905092915050565b600060208201905081810360008301526200107c818462000ec1565b905092915050565b60006040820190508181036000830152620010a0818562000ec1565b90508181036020830152620010b6818462000ec1565b90509392505050565b60006060820190508181036000830152620010db818662000ec1565b90508181036020830152620010f1818562000ec1565b905062001102604083018462000e46565b949350505050565b60006020820190508181036000830152620011258162000f02565b9050919050565b60006020820190508181036000830152620011478162000f29565b9050919050565b60006020820190508181036000830152620011698162000f50565b9050919050565b600060208201905062001187600083018462000f77565b92915050565b600062001199620011ac565b9050620011a78282620012c4565b919050565b6000604051905090565b600067ffffffffffffffff821115620011d457620011d3620012fa565b5b620011df8262001329565b9050602081019050919050565b6000819050602082019050919050565b600081519050919050565b600081519050919050565b6000602082019050919050565b600082825260208201905092915050565b600082825260208201905092915050565b60006200124e8262001255565b9050919050565b600073ffffffffffffffffffffffffffffffffffffffff82169050919050565b6000819050919050565b82818337600083830152505050565b60005b83811015620012ae57808201518184015260208101905062001291565b83811115620012be576000848401525b50505050565b620012cf8262001329565b810181811067ffffffffffffffff82111715620012f157620012f0620012fa565b5b80604052505050565b7f4e487b7100000000000000000000000000000000000000000000000000000000600052604160045260246000fd5b6000601f19601f8301169050919050565b7f4f6e6c792043726561746f722063616e2063616c6c2074686973210000000000600082015250565b7f4f6e6c792041646d696e2063616e2063616c6c20746869732100000000000000600082015250565b7f4f6e6c792045786368616e67652063616e2063616c6c20746869732100000000600082015250565b620013c08162001241565b8114620013cc57600080fd5b50565b620013da8162001275565b8114620013e657600080fd5b5056fe60806040523480156200001157600080fd5b50604051620036e1380380620036e183398181016040528101906200003791906200039c565b81818160009080519060200190620000519291906200027a565b5080600190805190602001906200006a9291906200027a565b5050506200008d62000081620000e060201b60201c565b620000e860201b60201c565b620000d86040518060400160405280601e81526020017f5468697320697320616e204e465420636f6e74726163742e2057686f61210000815250620001ae60201b62000dee1760201c565b505062000600565b600033905090565b6000600760009054906101000a900473ffffffffffffffffffffffffffffffffffffffff16905081600760006101000a81548173ffffffffffffffffffffffffffffffffffffffff021916908373ffffffffffffffffffffffffffffffffffffffff1602179055508173ffffffffffffffffffffffffffffffffffffffff168173ffffffffffffffffffffffffffffffffffffffff167f8be0079c531659141344cd1fd0a4f28419497f9722a3daafe3b4186f6b6457e060405160405180910390a35050565b6200024e81604051602401620001c5919062000450565b6040516020818303038152906040527f41304fac000000000000000000000000000000000000000000000000000000007bffffffffffffffffffffffffffffffffffffffffffffffffffffffff19166020820180517bffffffffffffffffffffffffffffffffffffffffffffffffffffffff83818316178352505050506200025160201b60201c565b50565b60008151905060006a636f6e736f6c652e6c6f679050602083016000808483855afa5050505050565b828054620002889062000525565b90600052602060002090601f016020900481019282620002ac5760008555620002f8565b82601f10620002c757805160ff1916838001178555620002f8565b82800160010185558215620002f8579182015b82811115620002f7578251825591602001919060010190620002da565b5b5090506200030791906200030b565b5090565b5b80821115620003265760008160009055506001016200030c565b5090565b6000620003416200033b846200049d565b62000474565b9050828152602081018484840111156200035a57600080fd5b62000367848285620004ef565b509392505050565b600082601f8301126200038157600080fd5b8151620003938482602086016200032a565b91505092915050565b60008060408385031215620003b057600080fd5b600083015167ffffffffffffffff811115620003cb57600080fd5b620003d9858286016200036f565b925050602083015167ffffffffffffffff811115620003f757600080fd5b62000405858286016200036f565b9150509250929050565b60006200041c82620004d3565b620004288185620004de565b93506200043a818560208601620004ef565b6200044581620005ef565b840191505092915050565b600060208201905081810360008301526200046c81846200040f565b905092915050565b60006200048062000493565b90506200048e82826200055b565b919050565b6000604051905090565b600067ffffffffffffffff821115620004bb57620004ba620005c0565b5b620004c682620005ef565b9050602081019050919050565b600081519050919050565b600082825260208201905092915050565b60005b838110156200050f578082015181840152602081019050620004f2565b838111156200051f576000848401525b50505050565b600060028204905060018216806200053e57607f821691505b6020821081141562000555576200055462000591565b5b50919050565b6200056682620005ef565b810181811067ffffffffffffffff82111715620005885762000587620005c0565b5b80604052505050565b7f4e487b7100000000000000000000000000000000000000000000000000000000600052602260045260246000fd5b7f4e487b7100000000000000000000000000000000000000000000000000000000600052604160045260246000fd5b6000601f19601f8301169050919050565b6130d180620006106000396000f3fe608060405234801561001057600080fd5b50600436106101165760003560e01c806370a08231116100a2578063a22cb46511610071578063a22cb465146102e1578063b88d4fde146102fd578063c87b56dd14610319578063e985e9c514610349578063f2fde38b1461037957610116565b806370a082311461026b578063715018a61461029b5780638da5cb5b146102a557806395d89b41146102c357610116565b806323b872dd116100e957806323b872dd146101b557806330bdb351146101d15780633157631f146101ef57806342842e0e1461021f5780636352211e1461023b57610116565b806301ffc9a71461011b57806306fdde031461014b578063081812fc14610169578063095ea7b314610199575b600080fd5b6101356004803603810190610130919061203f565b610395565b60405161014291906124cc565b60405180910390f35b610153610477565b60405161016091906124e7565b60405180910390f35b610183600480360381019061017e91906120d2565b610509565b6040516101909190612465565b60405180910390f35b6101b360048036038101906101ae9190612003565b61058e565b005b6101cf60048036038101906101ca9190611efd565b6106a6565b005b6101d9610706565b6040516101e69190612749565b60405180910390f35b61020960048036038101906102049190612091565b610717565b6040516102169190612749565b60405180910390f35b61023960048036038101906102349190611efd565b6107ca565b005b610255600480360381019061025091906120d2565b6107ea565b6040516102629190612465565b60405180910390f35b61028560048036038101906102809190611e98565b61089c565b6040516102929190612749565b60405180910390f35b6102a3610954565b005b6102ad6109dc565b6040516102ba9190612465565b60405180910390f35b6102cb610a06565b6040516102d891906124e7565b60405180910390f35b6102fb60048036038101906102f69190611fc7565b610a98565b005b61031760048036038101906103129190611f4c565b610aae565b005b610333600480360381019061032e91906120d2565b610b10565b60405161034091906124e7565b60405180910390f35b610363600480360381019061035e9190611ec1565b610c62565b60405161037091906124cc565b60405180910390f35b610393600480360381019061038e9190611e98565b610cf6565b005b60007f80ac58cd000000000000000000000000000000000000000000000000000000007bffffffffffffffffffffffffffffffffffffffffffffffffffffffff1916827bffffffffffffffffffffffffffffffffffffffffffffffffffffffff1916148061046057507f5b5e139f000000000000000000000000000000000000000000000000000000007bffffffffffffffffffffffffffffffffffffffffffffffffffffffff1916827bffffffffffffffffffffffffffffffffffffffffffffffffffffffff1916145b80610470575061046f82610e87565b5b9050919050565b6060600080546104869061299f565b80601f01602080910402602001604051908101604052809291908181526020018280546104b29061299f565b80156104ff5780601f106104d4576101008083540402835291602001916104ff565b820191906000526020600020905b8154815290600101906020018083116104e257829003601f168201915b5050505050905090565b600061051482610ef1565b610553576040517f08c379a000000000000000000000000000000000000000000000000000000000815260040161054a906126a9565b60405180910390fd5b6004600083815260200190815260200160002060009054906101000a900473ffffffffffffffffffffffffffffffffffffffff169050919050565b6000610599826107ea565b90508073ffffffffffffffffffffffffffffffffffffffff168373ffffffffffffffffffffffffffffffffffffffff16141561060a576040517f08c379a000000000000000000000000000000000000000000000000000000000815260040161060190612709565b60405180910390fd5b8073ffffffffffffffffffffffffffffffffffffffff16610629610f5d565b73ffffffffffffffffffffffffffffffffffffffff161480610658575061065781610652610f5d565b610c62565b5b610697576040517f08c379a000000000000000000000000000000000000000000000000000000000815260040161068e906125e9565b60405180910390fd5b6106a18383610f65565b505050565b6106b76106b1610f5d565b8261101e565b6106f6576040517f08c379a00000000000000000000000000000000000000000000000000000000081526004016106ed90612729565b60405180910390fd5b6107018383836110fc565b505050565b60006107126008611363565b905090565b6000610721610f5d565b73ffffffffffffffffffffffffffffffffffffffff1661073f6109dc565b73ffffffffffffffffffffffffffffffffffffffff1614610795576040517f08c379a000000000000000000000000000000000000000000000000000000000815260040161078c906126c9565b60405180910390fd5b61079f6008611371565b60006107ab6008611363565b90506107b73382611387565b6107c18184611561565b80915050919050565b6107e583838360405180602001604052806000815250610aae565b505050565b6000806002600084815260200190815260200160002060009054906101000a900473ffffffffffffffffffffffffffffffffffffffff169050600073ffffffffffffffffffffffffffffffffffffffff168173ffffffffffffffffffffffffffffffffffffffff161415610893576040517f08c379a000000000000000000000000000000000000000000000000000000000815260040161088a90612629565b60405180910390fd5b80915050919050565b60008073ffffffffffffffffffffffffffffffffffffffff168273ffffffffffffffffffffffffffffffffffffffff16141561090d576040517f08c379a000000000000000000000000000000000000000000000000000000000815260040161090490612609565b60405180910390fd5b600360008373ffffffffffffffffffffffffffffffffffffffff1673ffffffffffffffffffffffffffffffffffffffff168152602001908152602001600020549050919050565b61095c610f5d565b73ffffffffffffffffffffffffffffffffffffffff1661097a6109dc565b73ffffffffffffffffffffffffffffffffffffffff16146109d0576040517f08c379a00000000000000000000000000000000000000000000000000000000081526004016109c7906126c9565b60405180910390fd5b6109da60006115d5565b565b6000600760009054906101000a900473ffffffffffffffffffffffffffffffffffffffff16905090565b606060018054610a159061299f565b80601f0160208091040260200160405190810160405280929190818152602001828054610a419061299f565b8015610a8e5780601f10610a6357610100808354040283529160200191610a8e565b820191906000526020600020905b815481529060010190602001808311610a7157829003601f168201915b5050505050905090565b610aaa610aa3610f5d565b838361169b565b5050565b610abf610ab9610f5d565b8361101e565b610afe576040517f08c379a0000000000000000000000000000000000000000000000000000000008152600401610af590612729565b60405180910390fd5b610b0a84848484611808565b50505050565b6060610b1b82610ef1565b610b5a576040517f08c379a0000000000000000000000000000000000000000000000000000000008152600401610b5190612689565b60405180910390fd5b6000600660008481526020019081526020016000208054610b7a9061299f565b80601f0160208091040260200160405190810160405280929190818152602001828054610ba69061299f565b8015610bf35780601f10610bc857610100808354040283529160200191610bf3565b820191906000526020600020905b815481529060010190602001808311610bd657829003601f168201915b505050505090506000610c04611864565b9050600081511415610c1a578192505050610c5d565b600082511115610c4f578082604051602001610c37929190612441565b60405160208183030381529060405292505050610c5d565b610c588461187b565b925050505b919050565b6000600560008473ffffffffffffffffffffffffffffffffffffffff1673ffffffffffffffffffffffffffffffffffffffff16815260200190815260200160002060008373ffffffffffffffffffffffffffffffffffffffff1673ffffffffffffffffffffffffffffffffffffffff16815260200190815260200160002060009054906101000a900460ff16905092915050565b610cfe610f5d565b73ffffffffffffffffffffffffffffffffffffffff16610d1c6109dc565b73ffffffffffffffffffffffffffffffffffffffff1614610d72576040517f08c379a0000000000000000000000000000000000000000000000000000000008152600401610d69906126c9565b60405180910390fd5b600073ffffffffffffffffffffffffffffffffffffffff168173ffffffffffffffffffffffffffffffffffffffff161415610de2576040517f08c379a0000000000000000000000000000000000000000000000000000000008152600401610dd990612529565b60405180910390fd5b610deb816115d5565b50565b610e8481604051602401610e0291906124e7565b6040516020818303038152906040527f41304fac000000000000000000000000000000000000000000000000000000007bffffffffffffffffffffffffffffffffffffffffffffffffffffffff19166020820180517bffffffffffffffffffffffffffffffffffffffffffffffffffffffff8381831617835250505050611922565b50565b60007f01ffc9a7000000000000000000000000000000000000000000000000000000007bffffffffffffffffffffffffffffffffffffffffffffffffffffffff1916827bffffffffffffffffffffffffffffffffffffffffffffffffffffffff1916149050919050565b60008073ffffffffffffffffffffffffffffffffffffffff166002600084815260200190815260200160002060009054906101000a900473ffffffffffffffffffffffffffffffffffffffff1673ffffffffffffffffffffffffffffffffffffffff1614159050919050565b600033905090565b816004600083815260200190815260200160002060006101000a81548173ffffffffffffffffffffffffffffffffffffffff021916908373ffffffffffffffffffffffffffffffffffffffff160217905550808273ffffffffffffffffffffffffffffffffffffffff16610fd8836107ea565b73ffffffffffffffffffffffffffffffffffffffff167f8c5be1e5ebec7d5bd14f71427d1e84f3dd0314c0f7b2291e5b200ac8c7c3b92560405160405180910390a45050565b600061102982610ef1565b611068576040517f08c379a000000000000000000000000000000000000000000000000000000000815260040161105f906125c9565b60405180910390fd5b6000611073836107ea565b90508073ffffffffffffffffffffffffffffffffffffffff168473ffffffffffffffffffffffffffffffffffffffff1614806110e257508373ffffffffffffffffffffffffffffffffffffffff166110ca84610509565b73ffffffffffffffffffffffffffffffffffffffff16145b806110f357506110f28185610c62565b5b91505092915050565b8273ffffffffffffffffffffffffffffffffffffffff1661111c826107ea565b73ffffffffffffffffffffffffffffffffffffffff1614611172576040517f08c379a000000000000000000000000000000000000000000000000000000000815260040161116990612549565b60405180910390fd5b600073ffffffffffffffffffffffffffffffffffffffff168273ffffffffffffffffffffffffffffffffffffffff1614156111e2576040517f08c379a00000000000000000000000000000000000000000000000000000000081526004016111d990612589565b60405180910390fd5b6111ed83838361194b565b6111f8600082610f65565b6001600360008573ffffffffffffffffffffffffffffffffffffffff1673ffffffffffffffffffffffffffffffffffffffff168152602001908152602001600020600082825461124891906128b5565b925050819055506001600360008473ffffffffffffffffffffffffffffffffffffffff1673ffffffffffffffffffffffffffffffffffffffff168152602001908152602001600020600082825461129f919061282e565b92505081905550816002600083815260200190815260200160002060006101000a81548173ffffffffffffffffffffffffffffffffffffffff021916908373ffffffffffffffffffffffffffffffffffffffff160217905550808273ffffffffffffffffffffffffffffffffffffffff168473ffffffffffffffffffffffffffffffffffffffff167fddf252ad1be2c89b69c2b068fc378daa952ba7f163c4a11628f55a4df523b3ef60405160405180910390a461135e838383611950565b505050565b600081600001549050919050565b6001816000016000828254019250508190555050565b600073ffffffffffffffffffffffffffffffffffffffff168273ffffffffffffffffffffffffffffffffffffffff1614156113f7576040517f08c379a00000000000000000000000000000000000000000000000000000000081526004016113ee90612669565b60405180910390fd5b61140081610ef1565b15611440576040517f08c379a000000000000000000000000000000000000000000000000000000000815260040161143790612569565b60405180910390fd5b61144c6000838361194b565b6001600360008473ffffffffffffffffffffffffffffffffffffffff1673ffffffffffffffffffffffffffffffffffffffff168152602001908152602001600020600082825461149c919061282e565b92505081905550816002600083815260200190815260200160002060006101000a81548173ffffffffffffffffffffffffffffffffffffffff021916908373ffffffffffffffffffffffffffffffffffffffff160217905550808273ffffffffffffffffffffffffffffffffffffffff16600073ffffffffffffffffffffffffffffffffffffffff167fddf252ad1be2c89b69c2b068fc378daa952ba7f163c4a11628f55a4df523b3ef60405160405180910390a461155d60008383611950565b5050565b61156a82610ef1565b6115a9576040517f08c379a00000000000000000000000000000000000000000000000000000000081526004016115a090612649565b60405180910390fd5b806006600084815260200190815260200160002090805190602001906115d0929190611cbc565b505050565b6000600760009054906101000a900473ffffffffffffffffffffffffffffffffffffffff16905081600760006101000a81548173ffffffffffffffffffffffffffffffffffffffff021916908373ffffffffffffffffffffffffffffffffffffffff1602179055508173ffffffffffffffffffffffffffffffffffffffff168173ffffffffffffffffffffffffffffffffffffffff167f8be0079c531659141344cd1fd0a4f28419497f9722a3daafe3b4186f6b6457e060405160405180910390a35050565b8173ffffffffffffffffffffffffffffffffffffffff168373ffffffffffffffffffffffffffffffffffffffff16141561170a576040517f08c379a0000000000000000000000000000000000000000000000000000000008152600401611701906125a9565b60405180910390fd5b80600560008573ffffffffffffffffffffffffffffffffffffffff1673ffffffffffffffffffffffffffffffffffffffff16815260200190815260200160002060008473ffffffffffffffffffffffffffffffffffffffff1673ffffffffffffffffffffffffffffffffffffffff16815260200190815260200160002060006101000a81548160ff0219169083151502179055508173ffffffffffffffffffffffffffffffffffffffff168373ffffffffffffffffffffffffffffffffffffffff167f17307eab39ab6107e8899845ad3d59bd9653f200f220920489ca2b5937696c31836040516117fb91906124cc565b60405180910390a3505050565b6118138484846110fc565b61181f84848484611955565b61185e576040517f08c379a000000000000000000000000000000000000000000000000000000000815260040161185590612509565b60405180910390fd5b50505050565b606060405180602001604052806000815250905090565b606061188682610ef1565b6118c5576040517f08c379a00000000000000000000000000000000000000000000000000000000081526004016118bc906126e9565b60405180910390fd5b60006118cf611864565b905060008151116118ef576040518060200160405280600081525061191a565b806118f984611aec565b60405160200161190a929190612441565b6040516020818303038152906040525b915050919050565b60008151905060006a636f6e736f6c652e6c6f679050602083016000808483855afa5050505050565b505050565b505050565b60006119768473ffffffffffffffffffffffffffffffffffffffff16611c99565b15611adf578373ffffffffffffffffffffffffffffffffffffffff1663150b7a0261199f610f5d565b8786866040518563ffffffff1660e01b81526004016119c19493929190612480565b602060405180830381600087803b1580156119db57600080fd5b505af1925050508015611a0c57506040513d601f19601f82011682018060405250810190611a099190612068565b60015b611a8f573d8060008114611a3c576040519150601f19603f3d011682016040523d82523d6000602084013e611a41565b606091505b50600081511415611a87576040517f08c379a0000000000000000000000000000000000000000000000000000000008152600401611a7e90612509565b60405180910390fd5b805181602001fd5b63150b7a0260e01b7bffffffffffffffffffffffffffffffffffffffffffffffffffffffff1916817bffffffffffffffffffffffffffffffffffffffffffffffffffffffff191614915050611ae4565b600190505b949350505050565b60606000821415611b34576040518060400160405280600181526020017f30000000000000000000000000000000000000000000000000000000000000008152509050611c94565b600082905060005b60008214611b66578080611b4f90612a02565b915050600a82611b5f9190612884565b9150611b3c565b60008167ffffffffffffffff811115611ba8577f4e487b7100000000000000000000000000000000000000000000000000000000600052604160045260246000fd5b6040519080825280601f01601f191660200182016040528015611bda5781602001600182028036833780820191505090505b5090505b60008514611c8d57600182611bf391906128b5565b9150600a85611c029190612a4b565b6030611c0e919061282e565b60f81b818381518110611c4a577f4e487b7100000000000000000000000000000000000000000000000000000000600052603260045260246000fd5b60200101907effffffffffffffffffffffffffffffffffffffffffffffffffffffffffffff1916908160001a905350600a85611c869190612884565b9450611bde565b8093505050505b919050565b6000808273ffffffffffffffffffffffffffffffffffffffff163b119050919050565b828054611cc89061299f565b90600052602060002090601f016020900481019282611cea5760008555611d31565b82601f10611d0357805160ff1916838001178555611d31565b82800160010185558215611d31579182015b82811115611d30578251825591602001919060010190611d15565b5b509050611d3e9190611d42565b5090565b5b80821115611d5b576000816000905550600101611d43565b5090565b6000611d72611d6d84612789565b612764565b905082815260208101848484011115611d8a57600080fd5b611d9584828561295d565b509392505050565b6000611db0611dab846127ba565b612764565b905082815260208101848484011115611dc857600080fd5b611dd384828561295d565b509392505050565b600081359050611dea8161303f565b92915050565b600081359050611dff81613056565b92915050565b600081359050611e148161306d565b92915050565b600081519050611e298161306d565b92915050565b600082601f830112611e4057600080fd5b8135611e50848260208601611d5f565b91505092915050565b600082601f830112611e6a57600080fd5b8135611e7a848260208601611d9d565b91505092915050565b600081359050611e9281613084565b92915050565b600060208284031215611eaa57600080fd5b6000611eb884828501611ddb565b91505092915050565b60008060408385031215611ed457600080fd5b6000611ee285828601611ddb565b9250506020611ef385828601611ddb565b9150509250929050565b600080600060608486031215611f1257600080fd5b6000611f2086828701611ddb565b9350506020611f3186828701611ddb565b9250506040611f4286828701611e83565b9150509250925092565b60008060008060808587031215611f6257600080fd5b6000611f7087828801611ddb565b9450506020611f8187828801611ddb565b9350506040611f9287828801611e83565b925050606085013567ffffffffffffffff811115611faf57600080fd5b611fbb87828801611e2f565b91505092959194509250565b60008060408385031215611fda57600080fd5b6000611fe885828601611ddb565b9250506020611ff985828601611df0565b9150509250929050565b6000806040838503121561201657600080fd5b600061202485828601611ddb565b925050602061203585828601611e83565b9150509250929050565b60006020828403121561205157600080fd5b600061205f84828501611e05565b91505092915050565b60006020828403121561207a57600080fd5b600061208884828501611e1a565b91505092915050565b6000602082840312156120a357600080fd5b600082013567ffffffffffffffff8111156120bd57600080fd5b6120c984828501611e59565b91505092915050565b6000602082840312156120e457600080fd5b60006120f284828501611e83565b91505092915050565b612104816128e9565b82525050565b612113816128fb565b82525050565b6000612124826127eb565b61212e8185612801565b935061213e81856020860161296c565b61214781612b38565b840191505092915050565b600061215d826127f6565b6121678185612812565b935061217781856020860161296c565b61218081612b38565b840191505092915050565b6000612196826127f6565b6121a08185612823565b93506121b081856020860161296c565b80840191505092915050565b60006121c9603283612812565b91506121d482612b49565b604082019050919050565b60006121ec602683612812565b91506121f782612b98565b604082019050919050565b600061220f602583612812565b915061221a82612be7565b604082019050919050565b6000612232601c83612812565b915061223d82612c36565b602082019050919050565b6000612255602483612812565b915061226082612c5f565b604082019050919050565b6000612278601983612812565b915061228382612cae565b602082019050919050565b600061229b602c83612812565b91506122a682612cd7565b604082019050919050565b60006122be603883612812565b91506122c982612d26565b604082019050919050565b60006122e1602a83612812565b91506122ec82612d75565b604082019050919050565b6000612304602983612812565b915061230f82612dc4565b604082019050919050565b6000612327602e83612812565b915061233282612e13565b604082019050919050565b600061234a602083612812565b915061235582612e62565b602082019050919050565b600061236d603183612812565b915061237882612e8b565b604082019050919050565b6000612390602c83612812565b915061239b82612eda565b604082019050919050565b60006123b3602083612812565b91506123be82612f29565b602082019050919050565b60006123d6602f83612812565b91506123e182612f52565b604082019050919050565b60006123f9602183612812565b915061240482612fa1565b604082019050919050565b600061241c603183612812565b915061242782612ff0565b604082019050919050565b61243b81612953565b82525050565b600061244d828561218b565b9150612459828461218b565b91508190509392505050565b600060208201905061247a60008301846120fb565b92915050565b600060808201905061249560008301876120fb565b6124a260208301866120fb565b6124af6040830185612432565b81810360608301526124c18184612119565b905095945050505050565b60006020820190506124e1600083018461210a565b92915050565b600060208201905081810360008301526125018184612152565b905092915050565b60006020820190508181036000830152612522816121bc565b9050919050565b60006020820190508181036000830152612542816121df565b9050919050565b6000602082019050818103600083015261256281612202565b9050919050565b6000602082019050818103600083015261258281612225565b9050919050565b600060208201905081810360008301526125a281612248565b9050919050565b600060208201905081810360008301526125c28161226b565b9050919050565b600060208201905081810360008301526125e28161228e565b9050919050565b60006020820190508181036000830152612602816122b1565b9050919050565b60006020820190508181036000830152612622816122d4565b9050919050565b60006020820190508181036000830152612642816122f7565b9050919050565b600060208201905081810360008301526126628161231a565b9050919050565b600060208201905081810360008301526126828161233d565b9050919050565b600060208201905081810360008301526126a281612360565b9050919050565b600060208201905081810360008301526126c281612383565b9050919050565b600060208201905081810360008301526126e2816123a6565b9050919050565b60006020820190508181036000830152612702816123c9565b9050919050565b60006020820190508181036000830152612722816123ec565b9050919050565b600060208201905081810360008301526127428161240f565b9050919050565b600060208201905061275e6000830184612432565b92915050565b600061276e61277f565b905061277a82826129d1565b919050565b6000604051905090565b600067ffffffffffffffff8211156127a4576127a3612b09565b5b6127ad82612b38565b9050602081019050919050565b600067ffffffffffffffff8211156127d5576127d4612b09565b5b6127de82612b38565b9050602081019050919050565b600081519050919050565b600081519050919050565b600082825260208201905092915050565b600082825260208201905092915050565b600081905092915050565b600061283982612953565b915061284483612953565b9250827fffffffffffffffffffffffffffffffffffffffffffffffffffffffffffffffff0382111561287957612878612a7c565b5b828201905092915050565b600061288f82612953565b915061289a83612953565b9250826128aa576128a9612aab565b5b828204905092915050565b60006128c082612953565b91506128cb83612953565b9250828210156128de576128dd612a7c565b5b828203905092915050565b60006128f482612933565b9050919050565b60008115159050919050565b60007fffffffff0000000000000000000000000000000000000000000000000000000082169050919050565b600073ffffffffffffffffffffffffffffffffffffffff82169050919050565b6000819050919050565b82818337600083830152505050565b60005b8381101561298a57808201518184015260208101905061296f565b83811115612999576000848401525b50505050565b600060028204905060018216806129b757607f821691505b602082108114156129cb576129ca612ada565b5b50919050565b6129da82612b38565b810181811067ffffffffffffffff821117156129f9576129f8612b09565b5b80604052505050565b6000612a0d82612953565b91507fffffffffffffffffffffffffffffffffffffffffffffffffffffffffffffffff821415612a4057612a3f612a7c565b5b600182019050919050565b6000612a5682612953565b9150612a6183612953565b925082612a7157612a70612aab565b5b828206905092915050565b7f4e487b7100000000000000000000000000000000000000000000000000000000600052601160045260246000fd5b7f4e487b7100000000000000000000000000000000000000000000000000000000600052601260045260246000fd5b7f4e487b7100000000000000000000000000000000000000000000000000000000600052602260045260246000fd5b7f4e487b7100000000000000000000000000000000000000000000000000000000600052604160045260246000fd5b6000601f19601f8301169050919050565b7f4552433732313a207472616e7366657220746f206e6f6e20455243373231526560008201527f63656976657220696d706c656d656e7465720000000000000000000000000000602082015250565b7f4f776e61626c653a206e6577206f776e657220697320746865207a65726f206160008201527f6464726573730000000000000000000000000000000000000000000000000000602082015250565b7f4552433732313a207472616e736665722066726f6d20696e636f72726563742060008201527f6f776e6572000000000000000000000000000000000000000000000000000000602082015250565b7f4552433732313a20746f6b656e20616c7265616479206d696e74656400000000600082015250565b7f4552433732313a207472616e7366657220746f20746865207a65726f2061646460008201527f7265737300000000000000000000000000000000000000000000000000000000602082015250565b7f4552433732313a20617070726f766520746f2063616c6c657200000000000000600082015250565b7f4552433732313a206f70657261746f7220717565727920666f72206e6f6e657860008201527f697374656e7420746f6b656e0000000000000000000000000000000000000000602082015250565b7f4552433732313a20617070726f76652063616c6c6572206973206e6f74206f7760008201527f6e6572206e6f7220617070726f76656420666f7220616c6c0000000000000000602082015250565b7f4552433732313a2062616c616e636520717565727920666f7220746865207a6560008201527f726f206164647265737300000000000000000000000000000000000000000000602082015250565b7f4552433732313a206f776e657220717565727920666f72206e6f6e657869737460008201527f656e7420746f6b656e0000000000000000000000000000000000000000000000602082015250565b7f45524337323155524953746f726167653a2055524920736574206f66206e6f6e60008201527f6578697374656e7420746f6b656e000000000000000000000000000000000000602082015250565b7f4552433732313a206d696e7420746f20746865207a65726f2061646472657373600082015250565b7f45524337323155524953746f726167653a2055524920717565727920666f722060008201527f6e6f6e6578697374656e7420746f6b656e000000000000000000000000000000602082015250565b7f4552433732313a20617070726f76656420717565727920666f72206e6f6e657860008201527f697374656e7420746f6b656e0000000000000000000000000000000000000000602082015250565b7f4f776e61626c653a2063616c6c6572206973206e6f7420746865206f776e6572600082015250565b7f4552433732314d657461646174613a2055524920717565727920666f72206e6f60008201527f6e6578697374656e7420746f6b656e0000000000000000000000000000000000602082015250565b7f4552433732313a20617070726f76616c20746f2063757272656e74206f776e6560008201527f7200000000000000000000000000000000000000000000000000000000000000602082015250565b7f4552433732313a207472616e736665722063616c6c6572206973206e6f74206f60008201527f776e6572206e6f7220617070726f766564000000000000000000000000000000602082015250565b613048816128e9565b811461305357600080fd5b50565b61305f816128fb565b811461306a57600080fd5b50565b61307681612907565b811461308157600080fd5b50565b61308d81612953565b811461309857600080fd5b5056fea264697066735822122072f3b42cd2ba328d11088431587f55c6cf10ee19eeeb5521f848ce7fc1b70e2364736f6c63430008040033a264697066735822122054151eeeaf568d92499a97b4d23f0ab25bb1e9094bf55f5fe063e74f31e8bbfd64736f6c63430008040033",
  "linkReferences": {},
  "deployedLinkReferences": {}
}